{
  "_format": "hh-sol-artifact-1",
  "contractName": "NFTCollectionBridgeWrapper",
  "sourceName": "contracts/BaseBrdige/NFTBridge.sol",
  "abi": [
    {
      "inputs": [
        {
          "internalType": "address",
          "name": "_gatewayAddress",
          "type": "address"
        },
        {
          "internalType": "address",
          "name": "_godwokenNFTs",
          "type": "address"
        }
      ],
      "stateMutability": "nonpayable",
      "type": "constructor"
    },
    {
      "anonymous": false,
      "inputs": [
        {
          "indexed": false,
          "internalType": "uint256",
          "name": "tamount",
          "type": "uint256"
        },
        {
          "indexed": false,
          "internalType": "uint256",
          "name": "tokenID",
          "type": "uint256"
        },
        {
          "indexed": false,
          "internalType": "address",
          "name": "sender",
          "type": "address"
        },
        {
          "indexed": false,
          "internalType": "address",
          "name": "collectionAddress",
          "type": "address"
        },
        {
          "indexed": false,
          "internalType": "string",
          "name": "uri",
          "type": "string"
        },
        {
          "indexed": false,
          "internalType": "string",
          "name": "collectionName",
          "type": "string"
        },
        {
          "indexed": false,
          "internalType": "uint256",
          "name": "destinationChainId",
          "type": "uint256"
        }
      ],
      "name": "DEPOSIT",
      "type": "event"
    },
    {
      "anonymous": false,
      "inputs": [
        {
          "indexed": true,
          "internalType": "address",
          "name": "previousOwner",
          "type": "address"
        },
        {
          "indexed": true,
          "internalType": "address",
          "name": "newOwner",
          "type": "address"
        }
      ],
      "name": "OwnershipTransferred",
      "type": "event"
    },
    {
      "anonymous": false,
      "inputs": [
        {
          "indexed": false,
          "internalType": "uint256",
          "name": "ethtokenID",
          "type": "uint256"
        },
        {
          "indexed": false,
          "internalType": "uint256",
          "name": "godowkenTokenId",
          "type": "uint256"
        },
        {
          "indexed": false,
          "internalType": "address",
          "name": "sender",
          "type": "address"
        },
        {
          "indexed": false,
          "internalType": "address",
          "name": "tokenAddress",
          "type": "address"
        },
        {
          "indexed": false,
          "internalType": "string",
          "name": "uri",
          "type": "string"
        }
      ],
      "name": "WITHDRAW",
      "type": "event"
    },
    {
      "inputs": [],
      "name": "blockBridge",
      "outputs": [
        {
          "internalType": "bool",
          "name": "",
          "type": "bool"
        }
      ],
      "stateMutability": "nonpayable",
      "type": "function"
    },
    {
      "inputs": [
        {
          "internalType": "uint256",
          "name": "value",
          "type": "uint256"
        }
      ],
      "name": "changeBridgeFee",
      "outputs": [
        {
          "internalType": "bool",
          "name": "",
          "type": "bool"
        }
      ],
      "stateMutability": "nonpayable",
      "type": "function"
    },
    {
      "inputs": [
        {
          "internalType": "address",
          "name": "_newDevAddress",
          "type": "address"
        }
      ],
      "name": "changeDevAddress",
      "outputs": [
        {
          "internalType": "bool",
          "name": "",
          "type": "bool"
        }
      ],
      "stateMutability": "nonpayable",
      "type": "function"
    },
    {
      "inputs": [
        {
          "internalType": "address",
          "name": "_newGatewayAddress",
          "type": "address"
        }
      ],
      "name": "changeGatewayAddress",
      "outputs": [
        {
          "internalType": "bool",
          "name": "",
          "type": "bool"
        }
      ],
      "stateMutability": "nonpayable",
      "type": "function"
    },
    {
      "inputs": [
        {
          "internalType": "address",
          "name": "collectionAddress",
          "type": "address"
        },
        {
          "internalType": "uint256",
          "name": "_amount",
          "type": "uint256"
        },
        {
          "internalType": "uint256",
          "name": "_gasFees",
          "type": "uint256"
        },
        {
          "internalType": "uint256",
          "name": "_destChainId",
          "type": "uint256"
        },
        {
          "internalType": "uint256",
          "name": "_tokenID",
          "type": "uint256"
        },
        {
          "internalType": "string",
          "name": "uri",
          "type": "string"
        }
      ],
      "name": "deposit",
      "outputs": [
        {
          "internalType": "bool",
          "name": "",
          "type": "bool"
        }
      ],
      "stateMutability": "payable",
      "type": "function"
    },
    {
      "inputs": [],
      "name": "devAddress",
      "outputs": [
        {
          "internalType": "address",
          "name": "",
          "type": "address"
        }
      ],
      "stateMutability": "view",
      "type": "function"
    },
    {
      "inputs": [
        {
          "internalType": "string",
          "name": "collectionName",
          "type": "string"
        }
      ],
      "name": "getAddressFromName",
      "outputs": [
        {
          "internalType": "address",
          "name": "",
          "type": "address"
        }
      ],
      "stateMutability": "view",
      "type": "function"
    },
    {
      "inputs": [],
      "name": "godwokenNFTs",
      "outputs": [
        {
          "internalType": "address",
          "name": "",
          "type": "address"
        }
      ],
      "stateMutability": "view",
      "type": "function"
    },
    {
      "inputs": [],
      "name": "isBlocked",
      "outputs": [
        {
          "internalType": "bool",
          "name": "",
          "type": "bool"
        }
      ],
      "stateMutability": "view",
      "type": "function"
    },
    {
      "inputs": [
        {
          "internalType": "bytes32",
          "name": "",
          "type": "bytes32"
        }
      ],
      "name": "isNameRegistered",
      "outputs": [
        {
          "internalType": "bool",
          "name": "",
          "type": "bool"
        }
      ],
      "stateMutability": "view",
      "type": "function"
    },
    {
      "inputs": [
        {
          "internalType": "address",
          "name": "",
          "type": "address"
        }
      ],
      "name": "isWhitelisted",
      "outputs": [
        {
          "internalType": "bool",
          "name": "",
          "type": "bool"
        }
      ],
      "stateMutability": "view",
      "type": "function"
    },
    {
      "inputs": [
        {
          "internalType": "uint256",
          "name": "_tokenID",
          "type": "uint256"
        },
        {
          "internalType": "address",
          "name": "collectionAddress",
          "type": "address"
        },
        {
          "internalType": "address",
          "name": "receiver",
          "type": "address"
        }
      ],
      "name": "mintOnGodwoken",
      "outputs": [
        {
          "internalType": "bool",
          "name": "",
          "type": "bool"
        }
      ],
      "stateMutability": "nonpayable",
      "type": "function"
    },
    {
      "inputs": [
        {
          "internalType": "bytes32",
          "name": "",
          "type": "bytes32"
        }
      ],
      "name": "nameToAddress",
      "outputs": [
        {
          "internalType": "address",
          "name": "",
          "type": "address"
        }
      ],
      "stateMutability": "view",
      "type": "function"
    },
    {
      "inputs": [],
      "name": "owner",
      "outputs": [
        {
          "internalType": "address",
          "name": "",
          "type": "address"
        }
      ],
      "stateMutability": "view",
      "type": "function"
    },
    {
      "inputs": [
        {
          "internalType": "address",
          "name": "collectionAddress",
          "type": "address"
        }
      ],
      "name": "removeCollectionFromWhitelist",
      "outputs": [
        {
          "internalType": "bool",
          "name": "",
          "type": "bool"
        }
      ],
      "stateMutability": "nonpayable",
      "type": "function"
    },
    {
      "inputs": [],
      "name": "renounceOwnership",
      "outputs": [],
      "stateMutability": "nonpayable",
      "type": "function"
    },
    {
      "inputs": [
        {
          "internalType": "address payable",
          "name": "_to",
          "type": "address"
        },
        {
          "internalType": "uint256",
          "name": "_amount",
          "type": "uint256"
        }
      ],
      "name": "transferFunds",
      "outputs": [],
      "stateMutability": "nonpayable",
      "type": "function"
    },
    {
      "inputs": [
        {
          "internalType": "address",
          "name": "newOwner",
          "type": "address"
        }
      ],
      "name": "transferOwnership",
      "outputs": [],
      "stateMutability": "nonpayable",
      "type": "function"
    },
    {
      "inputs": [],
      "name": "unblockBridge",
      "outputs": [
        {
          "internalType": "bool",
          "name": "",
          "type": "bool"
        }
      ],
      "stateMutability": "nonpayable",
      "type": "function"
    },
    {
      "inputs": [
        {
          "internalType": "address",
          "name": "collectionAddress",
          "type": "address"
        },
        {
          "internalType": "string",
          "name": "collectionName",
          "type": "string"
        }
      ],
      "name": "whitelistCollection",
      "outputs": [
        {
          "internalType": "bool",
          "name": "",
          "type": "bool"
        }
      ],
      "stateMutability": "nonpayable",
      "type": "function"
    },
    {
      "inputs": [
        {
          "internalType": "uint256",
          "name": "",
          "type": "uint256"
        }
      ],
      "name": "whitelistedCollectionNames",
      "outputs": [
        {
          "internalType": "string",
          "name": "",
          "type": "string"
        }
      ],
      "stateMutability": "view",
      "type": "function"
    },
    {
      "inputs": [
        {
          "internalType": "uint256",
          "name": "_amount",
          "type": "uint256"
        }
      ],
      "name": "withdrawFunds",
      "outputs": [],
      "stateMutability": "nonpayable",
      "type": "function"
    }
  ],
  "bytecode": "0x6080604052662386f26fc100006002553480156200001c57600080fd5b5060405162002164380380620021648339810160408190526200003f91620000e9565b6200004a336200007c565b600580546001600160a01b039384166001600160a01b0319918216179091556007805492909316911617905562000120565b600080546001600160a01b038381166001600160a01b0319831681178455604051919092169283917f8be0079c531659141344cd1fd0a4f28419497f9722a3daafe3b4186f6b6457e09190a35050565b80516001600160a01b0381168114620000e457600080fd5b919050565b60008060408385031215620000fc578182fd5b6200010783620000cc565b91506200011760208401620000cc565b90509250929050565b61203480620001306000396000f3fe6080604052600436106101755760003560e01c80638da5cb5b116100cb578063990dc9db1161007f578063bb33bf2911610059578063bb33bf291461041c578063d75f0da71461043c578063f2fde38b1461045657600080fd5b8063990dc9db146103ba5780639db48b65146103da578063a68031281461040757600080fd5b80639189a5f0116100b05780639189a5f01461034a57806392b463901461037a578063977568bb1461039a57600080fd5b80638da5cb5b1461030c5780638e61514e1461032a57600080fd5b80633af32abf1161012d5780636f8423ac116101075780636f8423ac146102c2578063715018a6146102d757806379489895146102ec57600080fd5b80633af32abf1461023c5780634bac8c8d1461026c5780634e0290c6146102a257600080fd5b8063155dd5ee1161015e578063155dd5ee146101cf5780632f80c322146101f15780633ad10ef61461020457600080fd5b8063064d5a7c1461017a5780630de382ce146101af575b600080fd5b34801561018657600080fd5b5061019a610195366004611c29565b610476565b60405190151581526020015b60405180910390f35b3480156101bb57600080fd5b5061019a6101ca366004611d07565b61052c565b3480156101db57600080fd5b506101ef6101ea366004611c29565b61085d565b005b61019a6101ff366004611bb6565b610aac565b34801561021057600080fd5b50600654610224906001600160a01b031681565b6040516001600160a01b0390911681526020016101a6565b34801561024857600080fd5b5061019a610257366004611b1a565b60086020526000908152604090205460ff1681565b34801561027857600080fd5b50610224610287366004611c29565b600a602052600090815260409020546001600160a01b031681565b3480156102ae57600080fd5b5061019a6102bd366004611b1a565b610dd0565b3480156102ce57600080fd5b5061019a610fbe565b3480156102e357600080fd5b506101ef61102d565b3480156102f857600080fd5b50600754610224906001600160a01b031681565b34801561031857600080fd5b506000546001600160a01b0316610224565b34801561033657600080fd5b50610224610345366004611c41565b611093565b34801561035657600080fd5b5061019a610365366004611c29565b60096020526000908152604090205460ff1681565b34801561038657600080fd5b5061019a610395366004611b1a565b6110df565b3480156103a657600080fd5b5061019a6103b5366004611b1a565b6111c2565b3480156103c657600080fd5b506101ef6103d5366004611b3d565b6112a5565b3480156103e657600080fd5b506103fa6103f5366004611c29565b61150a565b6040516101a69190611db8565b34801561041357600080fd5b5061019a6115b6565b34801561042857600080fd5b5061019a610437366004611b68565b611621565b34801561044857600080fd5b5060035461019a9060ff1681565b34801561046257600080fd5b506101ef610471366004611b1a565b611936565b600080546001600160a01b031633146104d65760405162461bcd60e51b815260206004820181905260248201527f4f776e61626c653a2063616c6c6572206973206e6f7420746865206f776e657260448201526064015b60405180910390fd5b816105235760405162461bcd60e51b815260206004820152601160248201527f56616c75652063616e6e6f74206265203000000000000000000000000000000060448201526064016104cd565b50600255600190565b6005546000906001600160a01b0316331461054657600080fd5b6001600160a01b03831661059c5760405162461bcd60e51b815260206004820152601360248201527f43616e6e6f74206265206164647265737320300000000000000000000000000060448201526064016104cd565b6001600160a01b0382166105f25760405162461bcd60e51b815260206004820152601360248201527f43616e6e6f74206265206164647265737320300000000000000000000000000060448201526064016104cd565b6001600160a01b03831660009081526008602052604090205460ff1615156001146106855760405162461bcd60e51b815260206004820152603260248201527f5468697320436f6c6c656374696f6e206973206e6f742057686974656c69737460448201527f6564206f6e206f757220706c6174666f726d000000000000000000000000000060648201526084016104cd565b610693600180546001019055565b600754604080517f18160ddd00000000000000000000000000000000000000000000000000000000815290516000926001600160a01b0316916318160ddd916004808301926020929190829003018186803b1580156106f157600080fd5b505afa158015610705573d6000803e3d6000fd5b505050506040513d601f19601f820116820180604052508101906107299190611cef565b6001546107369190611ec6565b604080518082018252600f81527f68747470733a2f2f78797a2e706e670000000000000000000000000000000000602082015260075491517fcd279c7c000000000000000000000000000000000000000000000000000000008152929350916001600160a01b039091169063cd279c7c906107b990879086908690600401611d90565b600060405180830381600087803b1580156107d357600080fd5b505af11580156107e7573d6000803e3d6000fd5b5050506001600160a01b0386166000908152600b602090815260408083208a845290915290819020849055517f7847cf302bb94d4b460c6f0c8f4ac3b2a2c2e1ec21c41feb7b75104e684252ba9150610849908890859088908a908790611dcb565b60405180910390a150600195945050505050565b6000546001600160a01b031633146108b75760405162461bcd60e51b815260206004820181905260248201527f4f776e61626c653a2063616c6c6572206973206e6f7420746865206f776e657260448201526064016104cd565b478082111561092e5760405162461bcd60e51b815260206004820152602760248201527f42726964676520436f6e747261637420646f6e2774206861766520656e6f756760448201527f682066756e64730000000000000000000000000000000000000000000000000060648201526084016104cd565b6000606461093d84600a611efe565b6109479190611ede565b9050600061095d6000546001600160a01b031690565b6001600160a01b03166109708386611f3b565b604051600081818185875af1925050503d80600081146109ac576040519150601f19603f3d011682016040523d82523d6000602084013e6109b1565b606091505b5050905080610a025760405162461bcd60e51b815260206004820152601d60248201527f4661696c656420746f2073656e6420457468657220746f206f776e657200000060448201526064016104cd565b6006546040516000916001600160a01b03169084908381818185875af1925050503d8060008114610a4f576040519150601f19603f3d011682016040523d82523d6000602084013e610a54565b606091505b5050905080610aa55760405162461bcd60e51b815260206004820152601b60248201527f4661696c656420746f2073656e6420457468657220746f20646576000000000060448201526064016104cd565b5050505050565b60006001600160a01b038716610b045760405162461bcd60e51b815260206004820152601360248201527f43616e6e6f74206265206164647265737320300000000000000000000000000060448201526064016104cd565b60035460ff16151560011415610b5c5760405162461bcd60e51b815260206004820152601b60248201527f42726964676520697320626c6f636b6564207269676874206e6f77000000000060448201526064016104cd565b6001600160a01b03871660009081526008602052604090205460ff161515600114610bef5760405162461bcd60e51b815260206004820152602d60248201527f5468697320746f6b656e206973206e6f742057686974656c6973746564206f6e60448201527f206f757220706c6174666f726d0000000000000000000000000000000000000060648201526084016104cd565b84600254610bfd9190611ec6565b341015610c725760405162461bcd60e51b815260206004820152602260248201527f596f7520617265206e6f7420706179696e6720656e6f7567682067617320666560448201527f657300000000000000000000000000000000000000000000000000000000000060648201526084016104cd565b60008690506000886001600160a01b03166306fdde036040518163ffffffff1660e01b815260040160006040518083038186803b158015610cb257600080fd5b505afa158015610cc6573d6000803e3d6000fd5b505050506040513d6000823e601f3d908101601f19168201604052610cee9190810190611c7c565b90506001600160a01b0389166323b872dd336040517fffffffff0000000000000000000000000000000000000000000000000000000060e084901b1681526001600160a01b03909116600482015230602482015260448101889052606401600060405180830381600087803b158015610d6657600080fd5b505af1158015610d7a573d6000803e3d6000fd5b505050507f9bcba40f2d055d84e54902d1289a799579310ae6c2a5e532d2e01e9518af02a58286338c88868c604051610db99796959493929190611e0e565b60405180910390a150600198975050505050505050565b600080546001600160a01b03163314610e2b5760405162461bcd60e51b815260206004820181905260248201527f4f776e61626c653a2063616c6c6572206973206e6f7420746865206f776e657260448201526064016104cd565b6001600160a01b038216610e815760405162461bcd60e51b815260206004820152601360248201527f43616e6e6f74206265206164647265737320300000000000000000000000000060448201526064016104cd565b6000826001600160a01b03166306fdde036040518163ffffffff1660e01b815260040160006040518083038186803b158015610ebc57600080fd5b505afa158015610ed0573d6000803e3d6000fd5b505050506040513d6000823e601f3d908101601f19168201604052610ef89190810190611c7c565b905060006009600083604051602001610f119190611d74565b60408051601f1981840301815291815281516020928301208352828201939093529082016000908120805494151560ff199586161790556001600160a01b03871681526008825282812080549094169093559051600a9291610f7591859101611d74565b60408051808303601f19018152918152815160209283012083529082019290925201600020805473ffffffffffffffffffffffffffffffffffffffff1916905550600192915050565b600080546001600160a01b031633146110195760405162461bcd60e51b815260206004820181905260248201527f4f776e61626c653a2063616c6c6572206973206e6f7420746865206f776e657260448201526064016104cd565b506003805460ff1916600190811790915590565b6000546001600160a01b031633146110875760405162461bcd60e51b815260206004820181905260248201527f4f776e61626c653a2063616c6c6572206973206e6f7420746865206f776e657260448201526064016104cd565b6110916000611a18565b565b6000600a6000836040516020016110aa9190611d74565b60408051601f19818403018152918152815160209283012083529082019290925201600020546001600160a01b031692915050565b600080546001600160a01b0316331461113a5760405162461bcd60e51b815260206004820181905260248201527f4f776e61626c653a2063616c6c6572206973206e6f7420746865206f776e657260448201526064016104cd565b6001600160a01b0382166111905760405162461bcd60e51b815260206004820152601160248201527f56616c75652063616e6e6f74206265203000000000000000000000000000000060448201526064016104cd565b50600680546001600160a01b03831673ffffffffffffffffffffffffffffffffffffffff199091161790556001919050565b600080546001600160a01b0316331461121d5760405162461bcd60e51b815260206004820181905260248201527f4f776e61626c653a2063616c6c6572206973206e6f7420746865206f776e657260448201526064016104cd565b6001600160a01b0382166112735760405162461bcd60e51b815260206004820152601160248201527f56616c75652063616e6e6f74206265203000000000000000000000000000000060448201526064016104cd565b50600580546001600160a01b03831673ffffffffffffffffffffffffffffffffffffffff199091161790556001919050565b6000546001600160a01b031633146112ff5760405162461bcd60e51b815260206004820181905260248201527f4f776e61626c653a2063616c6c6572206973206e6f7420746865206f776e657260448201526064016104cd565b47808211156113765760405162461bcd60e51b815260206004820152602760248201527f42726964676520436f6e747261637420646f6e2774206861766520656e6f756760448201527f682066756e64730000000000000000000000000000000000000000000000000060648201526084016104cd565b6000606461138584600a611efe565b61138f9190611ede565b905060006001600160a01b0385166113a78386611f3b565b604051600081818185875af1925050503d80600081146113e3576040519150601f19603f3d011682016040523d82523d6000602084013e6113e8565b606091505b505090508061145f5760405162461bcd60e51b815260206004820152602360248201527f4661696c656420746f2073656e6420457468657220746f205f746f206164647260448201527f657373000000000000000000000000000000000000000000000000000000000060648201526084016104cd565b6006546040516000916001600160a01b03169084908381818185875af1925050503d80600081146114ac576040519150601f19603f3d011682016040523d82523d6000602084013e6114b1565b606091505b50509050806115025760405162461bcd60e51b815260206004820152601b60248201527f4661696c656420746f2073656e6420457468657220746f20646576000000000060448201526064016104cd565b505050505050565b6004818154811061151a57600080fd5b90600052602060002001600091509050805461153590611f82565b80601f016020809104026020016040519081016040528092919081815260200182805461156190611f82565b80156115ae5780601f10611583576101008083540402835291602001916115ae565b820191906000526020600020905b81548152906001019060200180831161159157829003601f168201915b505050505081565b600080546001600160a01b031633146116115760405162461bcd60e51b815260206004820181905260248201527f4f776e61626c653a2063616c6c6572206973206e6f7420746865206f776e657260448201526064016104cd565b506003805460ff19169055600190565b600080546001600160a01b0316331461167c5760405162461bcd60e51b815260206004820181905260248201527f4f776e61626c653a2063616c6c6572206973206e6f7420746865206f776e657260448201526064016104cd565b6001600160a01b0383166116d25760405162461bcd60e51b815260206004820152601360248201527f43616e6e6f74206265206164647265737320300000000000000000000000000060448201526064016104cd565b6000836001600160a01b03166306fdde036040518163ffffffff1660e01b815260040160006040518083038186803b15801561170d57600080fd5b505afa158015611721573d6000803e3d6000fd5b505050506040513d6000823e601f3d908101601f191682016040526117499190810190611c7c565b90508260405160200161175c9190611d74565b60405160208183030381529060405280519060200120816040516020016117839190611d74565b604051602081830303815290604052805190602001201461180c5760405162461bcd60e51b815260206004820152602260248201527f49742773206e6f74206120636f727265637420636f6c6c656374696f6e206e6160448201527f6d6500000000000000000000000000000000000000000000000000000000000060648201526084016104cd565b61181583611a75565b156118625760405162461bcd60e51b815260206004820152601960248201527f4475706c696361746520636f6c6c656374696f6e206e616d650000000000000060448201526064016104cd565b600160096000856040516020016118799190611d74565b60408051601f1981840301815291815281516020928301208352828201939093529082016000908120805494151560ff199586161790556001600160a01b038816815260088252828120805490941660011790935590518692600a9290916118e391889101611d74565b60405160208183030381529060405280519060200120815260200190815260200160002060006101000a8154816001600160a01b0302191690836001600160a01b03160217905550600191505092915050565b6000546001600160a01b031633146119905760405162461bcd60e51b815260206004820181905260248201527f4f776e61626c653a2063616c6c6572206973206e6f7420746865206f776e657260448201526064016104cd565b6001600160a01b038116611a0c5760405162461bcd60e51b815260206004820152602660248201527f4f776e61626c653a206e6577206f776e657220697320746865207a65726f206160448201527f646472657373000000000000000000000000000000000000000000000000000060648201526084016104cd565b611a1581611a18565b50565b600080546001600160a01b0383811673ffffffffffffffffffffffffffffffffffffffff19831681178455604051919092169283917f8be0079c531659141344cd1fd0a4f28419497f9722a3daafe3b4186f6b6457e09190a35050565b600080600090506009600084604051602001611a919190611d74565b60408051601f198184030181529181528151602092830120835290820192909252016000205460ff1615611ac3575060015b92915050565b600082601f830112611ad9578081fd5b8135611aec611ae782611e9e565b611e6d565b818152846020838601011115611b00578283fd5b816020850160208301379081016020019190915292915050565b600060208284031215611b2b578081fd5b8135611b3681611fe9565b9392505050565b60008060408385031215611b4f578081fd5b8235611b5a81611fe9565b946020939093013593505050565b60008060408385031215611b7a578182fd5b8235611b8581611fe9565b9150602083013567ffffffffffffffff811115611ba0578182fd5b611bac85828601611ac9565b9150509250929050565b60008060008060008060c08789031215611bce578182fd5b8635611bd981611fe9565b95506020870135945060408701359350606087013592506080870135915060a087013567ffffffffffffffff811115611c10578182fd5b611c1c89828a01611ac9565b9150509295509295509295565b600060208284031215611c3a578081fd5b5035919050565b600060208284031215611c52578081fd5b813567ffffffffffffffff811115611c68578182fd5b611c7484828501611ac9565b949350505050565b600060208284031215611c8d578081fd5b815167ffffffffffffffff811115611ca3578182fd5b8201601f81018413611cb3578182fd5b8051611cc1611ae782611e9e565b818152856020838501011115611cd5578384fd5b611ce6826020830160208601611f52565b95945050505050565b600060208284031215611d00578081fd5b5051919050565b600080600060608486031215611d1b578283fd5b833592506020840135611d2d81611fe9565b91506040840135611d3d81611fe9565b809150509250925092565b60008151808452611d60816020860160208601611f52565b601f01601f19169290920160200192915050565b60008251611d86818460208701611f52565b9190910192915050565b6001600160a01b0384168152826020820152606060408201526000611ce66060830184611d48565b602081526000611b366020830184611d48565b85815284602082015260006001600160a01b03808616604084015280851660608401525060a06080830152611e0360a0830184611d48565b979650505050505050565b87815286602082015260006001600160a01b03808816604084015280871660608401525060e06080830152611e4660e0830186611d48565b82810360a0840152611e588186611d48565b9150508260c083015298975050505050505050565b604051601f8201601f1916810167ffffffffffffffff81118282101715611e9657611e96611fd3565b604052919050565b600067ffffffffffffffff821115611eb857611eb8611fd3565b50601f01601f191660200190565b60008219821115611ed957611ed9611fbd565b500190565b600082611ef957634e487b7160e01b81526012600452602481fd5b500490565b6000817fffffffffffffffffffffffffffffffffffffffffffffffffffffffffffffffff0483118215151615611f3657611f36611fbd565b500290565b600082821015611f4d57611f4d611fbd565b500390565b60005b83811015611f6d578181015183820152602001611f55565b83811115611f7c576000848401525b50505050565b600181811c90821680611f9657607f821691505b60208210811415611fb757634e487b7160e01b600052602260045260246000fd5b50919050565b634e487b7160e01b600052601160045260246000fd5b634e487b7160e01b600052604160045260246000fd5b6001600160a01b0381168114611a1557600080fdfea2646970667358221220414d63820e3a72452cfd3a2f99585de84de825f8c43ca389074d3d23815adcd664736f6c63430008040033",
  "linkReferences": {},
  "deployedLinkReferences": {}
}